{
  "abi": [
    {
      "inputs": [
        {
          "internalType": "string",
          "name": "uri_",
          "type": "string"
        }
      ],
      "stateMutability": "nonpayable",
      "type": "constructor"
    },
    {
      "anonymous": false,
      "inputs": [
        {
          "indexed": true,
          "internalType": "address",
          "name": "account",
          "type": "address"
        },
        {
          "indexed": true,
          "internalType": "address",
          "name": "operator",
          "type": "address"
        },
        {
          "indexed": false,
          "internalType": "bool",
          "name": "approved",
          "type": "bool"
        }
      ],
      "name": "ApprovalForAll",
      "type": "event"
    },
    {
      "anonymous": false,
      "inputs": [
        {
          "indexed": true,
          "internalType": "address",
          "name": "operator",
          "type": "address"
        },
        {
          "indexed": true,
          "internalType": "address",
          "name": "from",
          "type": "address"
        },
        {
          "indexed": true,
          "internalType": "address",
          "name": "to",
          "type": "address"
        },
        {
          "indexed": false,
          "internalType": "uint256[]",
          "name": "ids",
          "type": "uint256[]"
        },
        {
          "indexed": false,
          "internalType": "uint256[]",
          "name": "values",
          "type": "uint256[]"
        }
      ],
      "name": "TransferBatch",
      "type": "event"
    },
    {
      "anonymous": false,
      "inputs": [
        {
          "indexed": true,
          "internalType": "address",
          "name": "operator",
          "type": "address"
        },
        {
          "indexed": true,
          "internalType": "address",
          "name": "from",
          "type": "address"
        },
        {
          "indexed": true,
          "internalType": "address",
          "name": "to",
          "type": "address"
        },
        {
          "indexed": false,
          "internalType": "uint256",
          "name": "id",
          "type": "uint256"
        },
        {
          "indexed": false,
          "internalType": "uint256",
          "name": "value",
          "type": "uint256"
        }
      ],
      "name": "TransferSingle",
      "type": "event"
    },
    {
      "anonymous": false,
      "inputs": [
        {
          "indexed": false,
          "internalType": "string",
          "name": "value",
          "type": "string"
        },
        {
          "indexed": true,
          "internalType": "uint256",
          "name": "id",
          "type": "uint256"
        }
      ],
      "name": "URI",
      "type": "event"
    },
    {
      "inputs": [
        {
          "internalType": "address",
          "name": "from",
          "type": "address"
        },
        {
          "internalType": "address",
          "name": "to",
          "type": "address"
        },
        {
          "internalType": "uint256",
          "name": "id",
          "type": "uint256"
        },
        {
          "internalType": "uint256",
          "name": "amount",
          "type": "uint256"
        },
        {
          "internalType": "bytes",
          "name": "data",
          "type": "bytes"
        }
      ],
      "name": "_safeTransferFrom",
      "outputs": [],
      "stateMutability": "nonpayable",
      "type": "function"
    },
    {
      "inputs": [
        {
          "internalType": "address",
          "name": "account",
          "type": "address"
        },
        {
          "internalType": "uint256",
          "name": "id",
          "type": "uint256"
        }
      ],
      "name": "balanceOf",
      "outputs": [
        {
          "internalType": "uint256",
          "name": "",
          "type": "uint256"
        }
      ],
      "stateMutability": "view",
      "type": "function"
    },
    {
      "inputs": [
        {
          "internalType": "address[]",
          "name": "accounts",
          "type": "address[]"
        },
        {
          "internalType": "uint256[]",
          "name": "ids",
          "type": "uint256[]"
        }
      ],
      "name": "balanceOfBatch",
      "outputs": [
        {
          "internalType": "uint256[]",
          "name": "",
          "type": "uint256[]"
        }
      ],
      "stateMutability": "view",
      "type": "function"
    },
    {
      "inputs": [
        {
          "internalType": "address",
          "name": "account",
          "type": "address"
        },
        {
          "internalType": "address",
          "name": "operator",
          "type": "address"
        }
      ],
      "name": "isApprovedForAll",
      "outputs": [
        {
          "internalType": "bool",
          "name": "",
          "type": "bool"
        }
      ],
      "stateMutability": "view",
      "type": "function"
    },
    {
      "inputs": [
        {
          "internalType": "address",
          "name": "from",
          "type": "address"
        },
        {
          "internalType": "address",
          "name": "to",
          "type": "address"
        },
        {
          "internalType": "uint256[]",
          "name": "ids",
          "type": "uint256[]"
        },
        {
          "internalType": "uint256[]",
          "name": "amounts",
          "type": "uint256[]"
        },
        {
          "internalType": "bytes",
          "name": "data",
          "type": "bytes"
        }
      ],
      "name": "safeBatchTransferFrom",
      "outputs": [],
      "stateMutability": "nonpayable",
      "type": "function"
    },
    {
      "inputs": [
        {
          "internalType": "address",
          "name": "from",
          "type": "address"
        },
        {
          "internalType": "address",
          "name": "to",
          "type": "address"
        },
        {
          "internalType": "uint256",
          "name": "id",
          "type": "uint256"
        },
        {
          "internalType": "uint256",
          "name": "amount",
          "type": "uint256"
        },
        {
          "internalType": "bytes",
          "name": "data",
          "type": "bytes"
        }
      ],
      "name": "safeTransferFrom",
      "outputs": [],
      "stateMutability": "nonpayable",
      "type": "function"
    },
    {
      "inputs": [
        {
          "internalType": "address",
          "name": "operator",
          "type": "address"
        },
        {
          "internalType": "bool",
          "name": "approved",
          "type": "bool"
        }
      ],
      "name": "setApprovalForAll",
      "outputs": [],
      "stateMutability": "nonpayable",
      "type": "function"
    },
    {
      "inputs": [
        {
          "internalType": "bytes4",
          "name": "interfaceId",
          "type": "bytes4"
        }
      ],
      "name": "supportsInterface",
      "outputs": [
        {
          "internalType": "bool",
          "name": "",
          "type": "bool"
        }
      ],
      "stateMutability": "view",
      "type": "function"
    },
    {
      "inputs": [
        {
          "internalType": "uint256",
          "name": "",
          "type": "uint256"
        }
      ],
      "name": "uri",
      "outputs": [
        {
          "internalType": "string",
          "name": "",
          "type": "string"
        }
      ],
      "stateMutability": "view",
      "type": "function"
    }
  ],
  "bytecode": {
    "object": "0x60806040523480156200001157600080fd5b50604051620014963803806200149683398101604081905262000034916200006e565b6200003f8162000046565b506200029e565b6002620000548282620001d2565b5050565b634e487b7160e01b600052604160045260246000fd5b600060208083850312156200008257600080fd5b82516001600160401b03808211156200009a57600080fd5b818501915085601f830112620000af57600080fd5b815181811115620000c457620000c462000058565b604051601f8201601f19908116603f01168101908382118183101715620000ef57620000ef62000058565b8160405282815288868487010111156200010857600080fd5b600093505b828410156200012c57848401860151818501870152928501926200010d565b600086848301015280965050505050505092915050565b600181811c908216806200015857607f821691505b6020821081036200017957634e487b7160e01b600052602260045260246000fd5b50919050565b601f821115620001cd57600081815260208120601f850160051c81016020861015620001a85750805b601f850160051c820191505b81811015620001c957828155600101620001b4565b5050505b505050565b81516001600160401b03811115620001ee57620001ee62000058565b6200020681620001ff845462000143565b846200017f565b602080601f8311600181146200023e5760008415620002255750858301515b600019600386901b1c1916600185901b178555620001c9565b600085815260208120601f198616915b828110156200026f578886015182559484019460019091019084016200024e565b50858210156200028e5787850151600019600388901b60f8161c191681555b5050505050600190811b01905550565b6111e880620002ae6000396000f3fe608060405234801561001057600080fd5b50600436106100925760003560e01c80634e1273f4116100665780634e1273f4146101155780638e8a759014610135578063a22cb46514610148578063e985e9c51461015b578063f242432a1461019757600080fd5b8062fdd58e1461009757806301ffc9a7146100bd5780630e89341c146100e05780632eb2c2d614610100575b600080fd5b6100aa6100a5366004610a75565b6101aa565b6040519081526020015b60405180910390f35b6100d06100cb366004610ab8565b610244565b60405190151581526020016100b4565b6100f36100ee366004610adc565b610294565b6040516100b49190610b3b565b61011361010e366004610c9a565b610328565b005b610128610123366004610d44565b6103bf565b6040516100b49190610e4a565b610113610143366004610e5d565b610486565b610113610156366004610ec2565b610532565b6100d0610169366004610efe565b6001600160a01b03918216600090815260016020908152604080832093909416825291909152205460ff1690565b6101136101a5366004610e5d565b610541565b60006001600160a01b03831661021b5760405162461bcd60e51b815260206004820152602b60248201527f455243313135353a2062616c616e636520717565727920666f7220746865207a60448201526a65726f206164647265737360a81b60648201526084015b60405180910390fd5b506000818152602081815260408083206001600160a01b03861684529091529020545b92915050565b60006001600160e01b03198216636cdb3d1360e11b148061027557506001600160e01b031982166303a24d0760e21b145b8061023e57506301ffc9a760e01b6001600160e01b031983161461023e565b6060600280546102a390610f31565b80601f01602080910402602001604051908101604052809291908181526020018280546102cf90610f31565b801561031c5780601f106102f15761010080835404028352916020019161031c565b820191906000526020600020905b8154815290600101906020018083116102ff57829003601f168201915b50505050509050919050565b6001600160a01b03851633148061034457506103448533610169565b6103ab5760405162461bcd60e51b815260206004820152603260248201527f455243313135353a207472616e736665722063616c6c6572206973206e6f74206044820152711bdddb995c881b9bdc88185c1c1c9bdd995960721b6064820152608401610212565b6103b885858585856105c8565b5050505050565b60606000835167ffffffffffffffff8111156103dd576103dd610b4e565b604051908082528060200260200182016040528015610406578160200160208202803683370190505b50905060005b845181101561047e5761045185828151811061042a5761042a610f6b565b602002602001015185838151811061044457610444610f6b565b60200260200101516101aa565b82828151811061046357610463610f6b565b602090810291909101015261047781610f97565b905061040c565b509392505050565b6000838152602081815260408083206001600160a01b038981168552925280832080548690039081905591871683528220805433938692916104c9908490610fb0565b909155505060408051868152602081018690526001600160a01b03808916928a821692918616917fc3d58168c5ae7397731d063d5bbf3d657854427343f4c083240f7aacaa2d0f62910160405180910390a4610529828888888888610763565b50505050505050565b61053d3383836108be565b5050565b6001600160a01b03851633148061055d575061055d8533610169565b6105bb5760405162461bcd60e51b815260206004820152602960248201527f455243313135353a2063616c6c6572206973206e6f74206f776e6572206e6f7260448201526808185c1c1c9bdd995960ba1b6064820152608401610212565b6103b88585858585610486565b6001600160a01b03841661062c5760405162461bcd60e51b815260206004820152602560248201527f455243313135353a207472616e7366657220746f20746865207a65726f206164604482015264647265737360d81b6064820152608401610212565b3360005b84518110156106f557600085828151811061064d5761064d610f6b565b60200260200101519050600085838151811061066b5761066b610f6b565b602090810291909101810151600084815280835260408082206001600160a01b038e16835290935291909120549091506106a58282610fc3565b6000848152602081815260408083206001600160a01b038e1684529091528120805492935084929091906106da908490610fb0565b92505081905550505050806106ee90610f97565b9050610630565b50846001600160a01b0316866001600160a01b0316826001600160a01b03167f4a39dc06d4c0dbc64b70af90fd698a233a518aa5d07e595d983b8c0526c8f7fb8787604051610745929190610fd6565b60405180910390a461075b81878787878761099e565b505050505050565b6001600160a01b0384163b1561075b5760405163f23a6e6160e01b81526001600160a01b0385169063f23a6e61906107a79089908990889088908890600401611004565b6020604051808303816000875af19250505080156107e2575060408051601f3d908101601f191682019092526107df91810190611049565b60015b61088e576107ee611066565b806308c379a0036108275750610802611082565b8061080d5750610829565b8060405162461bcd60e51b81526004016102129190610b3b565b505b60405162461bcd60e51b815260206004820152603460248201527f455243313135353a207472616e7366657220746f206e6f6e20455243313135356044820152732932b1b2b4bb32b91034b6b83632b6b2b73a32b960611b6064820152608401610212565b6001600160e01b0319811663f23a6e6160e01b146105295760405162461bcd60e51b81526004016102129061110c565b816001600160a01b0316836001600160a01b0316036109315760405162461bcd60e51b815260206004820152602960248201527f455243313135353a2073657474696e6720617070726f76616c20737461747573604482015268103337b91039b2b63360b91b6064820152608401610212565b6001600160a01b03838116600081815260016020908152604080832094871680845294825291829020805460ff191686151590811790915591519182527f17307eab39ab6107e8899845ad3d59bd9653f200f220920489ca2b5937696c31910160405180910390a3505050565b6001600160a01b0384163b1561075b5760405163bc197c8160e01b81526001600160a01b0385169063bc197c81906109e29089908990889088908890600401611154565b6020604051808303816000875af1925050508015610a1d575060408051601f3d908101601f19168201909252610a1a91810190611049565b60015b610a29576107ee611066565b6001600160e01b0319811663bc197c8160e01b146105295760405162461bcd60e51b81526004016102129061110c565b80356001600160a01b0381168114610a7057600080fd5b919050565b60008060408385031215610a8857600080fd5b610a9183610a59565b946020939093013593505050565b6001600160e01b031981168114610ab557600080fd5b50565b600060208284031215610aca57600080fd5b8135610ad581610a9f565b9392505050565b600060208284031215610aee57600080fd5b5035919050565b6000815180845260005b81811015610b1b57602081850181015186830182015201610aff565b506000602082860101526020601f19601f83011685010191505092915050565b602081526000610ad56020830184610af5565b634e487b7160e01b600052604160045260246000fd5b601f8201601f1916810167ffffffffffffffff81118282101715610b8a57610b8a610b4e565b6040525050565b600067ffffffffffffffff821115610bab57610bab610b4e565b5060051b60200190565b600082601f830112610bc657600080fd5b81356020610bd382610b91565b604051610be08282610b64565b83815260059390931b8501820192828101915086841115610c0057600080fd5b8286015b84811015610c1b5780358352918301918301610c04565b509695505050505050565b600082601f830112610c3757600080fd5b813567ffffffffffffffff811115610c5157610c51610b4e565b604051610c68601f8301601f191660200182610b64565b818152846020838601011115610c7d57600080fd5b816020850160208301376000918101602001919091529392505050565b600080600080600060a08688031215610cb257600080fd5b610cbb86610a59565b9450610cc960208701610a59565b9350604086013567ffffffffffffffff80821115610ce657600080fd5b610cf289838a01610bb5565b94506060880135915080821115610d0857600080fd5b610d1489838a01610bb5565b93506080880135915080821115610d2a57600080fd5b50610d3788828901610c26565b9150509295509295909350565b60008060408385031215610d5757600080fd5b823567ffffffffffffffff80821115610d6f57600080fd5b818501915085601f830112610d8357600080fd5b81356020610d9082610b91565b604051610d9d8282610b64565b83815260059390931b8501820192828101915089841115610dbd57600080fd5b948201945b83861015610de257610dd386610a59565b82529482019490820190610dc2565b96505086013592505080821115610df857600080fd5b50610e0585828601610bb5565b9150509250929050565b600081518084526020808501945080840160005b83811015610e3f57815187529582019590820190600101610e23565b509495945050505050565b602081526000610ad56020830184610e0f565b600080600080600060a08688031215610e7557600080fd5b610e7e86610a59565b9450610e8c60208701610a59565b93506040860135925060608601359150608086013567ffffffffffffffff811115610eb657600080fd5b610d3788828901610c26565b60008060408385031215610ed557600080fd5b610ede83610a59565b915060208301358015158114610ef357600080fd5b809150509250929050565b60008060408385031215610f1157600080fd5b610f1a83610a59565b9150610f2860208401610a59565b90509250929050565b600181811c90821680610f4557607f821691505b602082108103610f6557634e487b7160e01b600052602260045260246000fd5b50919050565b634e487b7160e01b600052603260045260246000fd5b634e487b7160e01b600052601160045260246000fd5b600060018201610fa957610fa9610f81565b5060010190565b8082018082111561023e5761023e610f81565b8181038181111561023e5761023e610f81565b604081526000610fe96040830185610e0f565b8281036020840152610ffb8185610e0f565b95945050505050565b6001600160a01b03868116825285166020820152604081018490526060810183905260a06080820181905260009061103e90830184610af5565b979650505050505050565b60006020828403121561105b57600080fd5b8151610ad581610a9f565b600060033d111561107f5760046000803e5060005160e01c5b90565b600060443d10156110905790565b6040516003193d81016004833e81513d67ffffffffffffffff81602484011181841117156110c057505050505090565b82850191508151818111156110d85750505050505090565b843d87010160208285010111156110f25750505050505090565b61110160208286010187610b64565b509095945050505050565b60208082526028908201527f455243313135353a204552433131353552656365697665722072656a656374656040820152676420746f6b656e7360c01b606082015260800190565b6001600160a01b0386811682528516602082015260a06040820181905260009061118090830186610e0f565b82810360608401526111928186610e0f565b905082810360808401526111a68185610af5565b9897505050505050505056fea264697066735822122045a150a1afaba7f7a12c7f3877a5d84287c3f9fa923ee8333de0a74d2ee9755e64736f6c63430008110033",
    "linkReferences": {}
  },
  "methodIdentifiers": {
    "_safeTransferFrom(address,address,uint256,uint256,bytes)": "8e8a7590",
    "balanceOf(address,uint256)": "00fdd58e",
    "balanceOfBatch(address[],uint256[])": "4e1273f4",
    "isApprovedForAll(address,address)": "e985e9c5",
    "safeBatchTransferFrom(address,address,uint256[],uint256[],bytes)": "2eb2c2d6",
    "safeTransferFrom(address,address,uint256,uint256,bytes)": "f242432a",
    "setApprovalForAll(address,bool)": "a22cb465",
    "supportsInterface(bytes4)": "01ffc9a7",
    "uri(uint256)": "0e89341c"
  },
  "id": 23
}